S01700004763634170706C69636174696F6E312E737265635B
S11300000C9436000C9440000C9440000C94400076
S11300100C9440000C9440000C9440000C9440005C
S11300200C9440000C9440000C9440000C9440004C
S11300300C9440000C9440000C9440000C9440003C
S11300400C9440000C9440000C9440000C9440002C
S11300500C94400048656C6C6F2050696E626F614F
S113006072642055736572212121000011241FBE82
S1130070CFE5D4E0DEBFCDBF0E9457000C946900E9
S11300800C9400005D9BFECF8CB90895CF93DF9351
S1130090EC01FE018491882339F0FE01849190E003
S11300A00E9442002496F5CFDF91CF91089583E317
S11300B089B910BC1BB888E18AB986E880BD85B7C8
S11300C0816085BF7894C09A84E590E00E944600E0
S10900D0FACFF894FFCF03
S9030000FC
