:020000020000FC
:1000000010C027C11895189518951895189518952A
:10001000189518951895D6C0189511C1189518956A
:100020001895D89AD09AE0E6F0E000270193F130D5
:10003000E9F7E036D9F7FF27EE27EEE1FF27EA954B
:10004000F083E9F70AE000B902E405BF00E40BBF62
:1000500000E000BF01E009BF0EE806B900E003B907
:1000600003EC08B901E00EBF0FE50DBF78940AB3A9
:1000700008600ABB0BB300600BBB07B3036007BB90
:1000800008B3026008BBB29B906826D0813011F0A3
:1000900090625AD0D89890FD16D095FD19D0FBCF1C
:1000A00096FF189544D083D096FF189590FFFBCF0C
:1000B000379A78D00EE0201700E0100796FF1895C9
:1000C000C09A01D0189596FF0895C098FCCF089566
:1000D00091FF08959D7F38D05DD003E3201701E0A4
:1000E000100750F008E5201701E0100730F00DE789
:1000F000201701E0100788F4689497FD12C047D0DC
:1001000002E1201700E0100708F020F4B99A00007F
:10011000C198F3CF82E0C198089581E09F7DC19A94
:1001200008951EF484E0E894089583E008950F9301
:1001300008EB009362000BE00093610000E0009385
:1001400060000FD00F9108950F9300E700936500B2
:1001500007E10093640000E00093630002D00F9178
:1001600008950F930FB70F9303B70770053031F061
:1001700001EB02BF01E003BD05E003BF0F910FBF1C
:100180000F9108950F9300E003BF0F9108950DEABA
:1001900007B90AC0D19AD99802E807B905C001E2A7
:1001A00007B902C007E807B9369A02D00895379810
:1001B0000F9305B7006205BF889505B7006005BFBE
:1001C0000F9108950F930FB70F934F935F936F9312
:1001D00001EB02BF409160005091610060916200AC
:1001E0006150504040404CF009F4916060936200CF
:1001F000509361004093600001C0916040916300A2
:1002000050916400609165006150504040404CF056
:1002100009F492606093650050936400409363001A
:1002200001C09260092F0370033011F400E003BF96
:100230006F915F914F910F910FBF0F9118950F9391
:100240000FB70F9324B115B10F910FBF0F91D19834
:1002500018950F930FB70F9305B700FD0AC0006004
:100260009064C19A9F7D0F910FBF0F91789418DF12
:1002700018950F7FC1989F7B0F910FBF0F91189515
:00000001FF
