:020000020000FC
:1000000037C00FC01895189518951895189518951C
:10001000189518951895189518950EC01895189557
:1000200018950F930FB70F93789409B307FB4FD030
:100030000F910FBF0F9118950F930FB70F9324B126
:1000400015B1DE9800E1220F111F10F4C09A01C013
:10005000C0980AD0C19A08D0C1980A95A1F7DE9A33
:100060000F910FBF0F911895000000000000089538
:10007000E0E6F0E000270193F130E9F7E036D9F748
:10008000FF27EE27EEE1FF27EA95F083E9F700E48A
:100090000BBF03E405BF0EE806B900E003B903ECAB
:1000A00008B901E00EBF0FE50DBF78940AB30064F4
:1000B0000ABB0BB300600BBB07B3036007BB08B3FD
:1000C000006008BB0000000000000000FBCF0CEA4D
:1000D00000F907B909D0089502E807B905C001E29F
:1000E00007B902C007E807B9369A0F9305B700624F
:0E00F00005BF889505B7006005BF0F91089504
:00000001FF
